{
  "_format": "hh-sol-artifact-1",
  "contractName": "Staking",
  "sourceName": "contracts/Staking.sol",
  "abi": [
    {
      "inputs": [],
      "stateMutability": "payable",
      "type": "constructor"
    },
    {
      "anonymous": false,
      "inputs": [
        {
          "indexed": true,
          "internalType": "address",
          "name": "staker",
          "type": "address"
        },
        {
          "indexed": false,
          "internalType": "uint256",
          "name": "positionId",
          "type": "uint256"
        },
        {
          "indexed": false,
          "internalType": "uint256",
          "name": "returnedAmount",
          "type": "uint256"
        }
      ],
      "name": "Closed",
      "type": "event"
    },
    {
      "anonymous": false,
      "inputs": [
        {
          "indexed": true,
          "internalType": "address",
          "name": "staker",
          "type": "address"
        },
        {
          "indexed": false,
          "internalType": "uint256",
          "name": "positionId",
          "type": "uint256"
        },
        {
          "indexed": false,
          "internalType": "uint256",
          "name": "weiAmount",
          "type": "uint256"
        },
        {
          "indexed": false,
          "internalType": "uint256",
          "name": "interestRate",
          "type": "uint256"
        },
        {
          "indexed": false,
          "internalType": "uint256",
          "name": "unlockDate",
          "type": "uint256"
        }
      ],
      "name": "Staked",
      "type": "event"
    },
    {
      "inputs": [
        {
          "internalType": "uint256",
          "name": "positionId",
          "type": "uint256"
        }
      ],
      "name": "closePosition",
      "outputs": [],
      "stateMutability": "nonpayable",
      "type": "function"
    },
    {
      "inputs": [],
      "name": "currentPositionId",
      "outputs": [
        {
          "internalType": "uint256",
          "name": "",
          "type": "uint256"
        }
      ],
      "stateMutability": "view",
      "type": "function"
    },
    {
      "inputs": [],
      "name": "getLockPeriods",
      "outputs": [
        {
          "internalType": "uint256[]",
          "name": "",
          "type": "uint256[]"
        }
      ],
      "stateMutability": "view",
      "type": "function"
    },
    {
      "inputs": [
        {
          "internalType": "uint256",
          "name": "positionId",
          "type": "uint256"
        }
      ],
      "name": "getPositionById",
      "outputs": [
        {
          "components": [
            {
              "internalType": "uint256",
              "name": "positionId",
              "type": "uint256"
            },
            {
              "internalType": "address",
              "name": "walletAddress",
              "type": "address"
            },
            {
              "internalType": "uint256",
              "name": "createdDate",
              "type": "uint256"
            },
            {
              "internalType": "uint256",
              "name": "unlockDate",
              "type": "uint256"
            },
            {
              "internalType": "uint256",
              "name": "percentInterest",
              "type": "uint256"
            },
            {
              "internalType": "uint256",
              "name": "weiStaked",
              "type": "uint256"
            },
            {
              "internalType": "uint256",
              "name": "weiInterest",
              "type": "uint256"
            },
            {
              "internalType": "bool",
              "name": "open",
              "type": "bool"
            }
          ],
          "internalType": "struct Staking.Position",
          "name": "",
          "type": "tuple"
        }
      ],
      "stateMutability": "view",
      "type": "function"
    },
    {
      "inputs": [
        {
          "internalType": "address",
          "name": "walletAddress",
          "type": "address"
        }
      ],
      "name": "getPositionsIdsByAddress",
      "outputs": [
        {
          "internalType": "uint256[]",
          "name": "",
          "type": "uint256[]"
        }
      ],
      "stateMutability": "view",
      "type": "function"
    },
    {
      "inputs": [],
      "name": "owner",
      "outputs": [
        {
          "internalType": "address",
          "name": "",
          "type": "address"
        }
      ],
      "stateMutability": "view",
      "type": "function"
    },
    {
      "inputs": [],
      "name": "rewardPool",
      "outputs": [
        {
          "internalType": "contract RewardPool",
          "name": "",
          "type": "address"
        }
      ],
      "stateMutability": "view",
      "type": "function"
    },
    {
      "inputs": [
        {
          "internalType": "address payable",
          "name": "_rewardPool",
          "type": "address"
        }
      ],
      "name": "setRewardPool",
      "outputs": [],
      "stateMutability": "nonpayable",
      "type": "function"
    },
    {
      "inputs": [
        {
          "internalType": "uint256",
          "name": "numSeconds",
          "type": "uint256"
        }
      ],
      "name": "stakeEther",
      "outputs": [],
      "stateMutability": "payable",
      "type": "function"
    }
  ],
  "bytecode": "0x600080546001600160a01b0319163317815560015560e0604052603c6080908152607860a05260b460c0526100389060069060036100b4565b506005602052603c7f251d9ec284fd981039307083734139a5137ee1b6185374514892855fcbc5bd9d5560467f29a15b4128bed86920d8d75ce6a7a845aa25ce798f5ce1c8595abd2c96c2672c5560b460005260507fec79235ffe9302935718f9bddc23f2c5c6c950ae49f49d137c786213c361802755610119565b8280548282559060005260206000209081019282156100f4579160200282015b828111156100f4578251829060ff169055916020019190600101906100d4565b50610100929150610104565b5090565b5b808211156101005760008155600101610105565b610a99806101286000396000f3fe6080604052600436106100865760003560e01c806378238c371161005957806378238c371461012e5780638da5cb5b14610150578063a126d60114610170578063b838ec8614610190578063e4f908411461021757600080fd5b80631131c8cd1461008b5780634151a035146100b457806341ee13be146100e157806366666aa9146100f6575b600080fd5b34801561009757600080fd5b506100a160015481565b6040519081526020015b60405180910390f35b3480156100c057600080fd5b506100d46100cf366004610967565b61022a565b6040516100ab919061098b565b3480156100ed57600080fd5b506100d4610296565b34801561010257600080fd5b50600254610116906001600160a01b031681565b6040516001600160a01b0390911681526020016100ab565b34801561013a57600080fd5b5061014e610149366004610967565b6102ee565b005b34801561015c57600080fd5b50600054610116906001600160a01b031681565b34801561017c57600080fd5b5061014e61018b3660046109cf565b61037a565b34801561019c57600080fd5b506101b06101ab3660046109cf565b6105b9565b6040516100ab9190815181526020808301516001600160a01b03169082015260408083015190820152606080830151908201526080808301519082015260a0808301519082015260c0808301519082015260e0918201511515918101919091526101000190565b61014e6102253660046109cf565b610687565b6001600160a01b03811660009081526004602090815260409182902080548351818402810184019094528084526060939283018282801561028a57602002820191906000526020600020905b815481526020019060010190808311610276575b50505050509050919050565b606060068054806020026020016040519081016040528092919081815260200182805480156102e457602002820191906000526020600020905b8154815260200190600101908083116102d0575b5050505050905090565b6000546001600160a01b031633146103585760405162461bcd60e51b815260206004820152602260248201527f4f6e6c79206f776e65722063616e20706572666f726d2074686973206163746960448201526137b760f11b60648201526084015b60405180910390fd5b600280546001600160a01b0319166001600160a01b0392909216919091179055565b60008181526003602052604090206001015481906001600160a01b031633146103de5760405162461bcd60e51b81526020600482015260166024820152752737ba103a3432903837b9b4ba34b7b71037bbb732b960511b604482015260640161034f565b60008181526003602052604090206007015460ff166104395760405162461bcd60e51b8152602060048201526017602482015276141bdcda5d1a5bdb88185b1c9958591e4818db1bdcd959604a1b604482015260640161034f565b600081815260036020819052604090912001544210156104935760405162461bcd60e51b8152602060048201526015602482015274141bdcda5d1a5bdb881cdd1a5b1b081b1bd8dad959605a1b604482015260640161034f565b6000828152600360205260409020600781015460ff166104ef5760405162461bcd60e51b8152602060048201526017602482015276141bdcda5d1a5bdb88185b1c9958591e4818db1bdcd959604a1b604482015260640161034f565b60078101805460ff1916905560068101546005820154600091610511916109fe565b604080518681526020810183905291925033917f792b1058d55c02122048f16ecbfdaab6be257e8c903a60a01f220960238aefc7910160405180910390a26002546040516307420a4160e01b8152336004820152602481018390526001600160a01b03909116906307420a4190604401600060405180830381600087803b15801561059b57600080fd5b505af11580156105af573d6000803e3d6000fd5b5050505050505050565b61060c6040518061010001604052806000815260200160006001600160a01b0316815260200160008152602001600081526020016000815260200160008152602001600081526020016000151581525090565b506000908152600360208181526040928390208351610100810185528154815260018201546001600160a01b03169281019290925260028101549382019390935290820154606082015260048201546080820152600582015460a0820152600682015460c082015260079091015460ff16151560e082015290565b6000818152600560205260409020546106db5760405162461bcd60e51b8152602060048201526016602482015275496e76616c6964206e756d626572206f66206461797360501b604482015260640161034f565b6000341161072b5760405162461bcd60e51b815260206004820152601860248201527f4d7573742073656e6420657468657220746f207374616b650000000000000000604482015260640161034f565b600061073782426109fe565b6000838152600560205260408120549192509061075590349061092d565b90506040518061010001604052806001548152602001336001600160a01b0316815260200142815260200183815260200160056000868152602001908152602001600020548152602001348152602001828152602001600115158152506003600060015481526020019081526020016000206000820151816000015560208201518160010160006101000a8154816001600160a01b0302191690836001600160a01b0316021790555060408201518160020155606082015181600301556080820151816004015560a0820151816005015560c0820151816006015560e08201518160070160006101000a81548160ff02191690831515021790555090505060046000336001600160a01b03166001600160a01b031681526020019081526020016000206001549080600181540180825580915050600190039060005260206000200160009091909190915055336001600160a01b03167f9cfd25589d1eb8ad71e342a86a8524e83522e3936c0803048c08f6d9ad974f406001543460056000888152602001908152602001600020548660405161090b949392919093845260208401929092526040830152606082015260800190565b60405180910390a26001805490600061092383610a11565b9190505550505050565b600061271061093c8385610a2a565b6109469190610a41565b90505b92915050565b6001600160a01b038116811461096457600080fd5b50565b60006020828403121561097957600080fd5b81356109848161094f565b9392505050565b6020808252825182820181905260009190848201906040850190845b818110156109c3578351835292840192918401916001016109a7565b50909695505050505050565b6000602082840312156109e157600080fd5b5035919050565b634e487b7160e01b600052601160045260246000fd5b80820180821115610949576109496109e8565b600060018201610a2357610a236109e8565b5060010190565b8082028115828204841417610949576109496109e8565b600082610a5e57634e487b7160e01b600052601260045260246000fd5b50049056fea2646970667358221220a263fbde7f5aa2510329507a4486ed50bf9970b2b94124826530abc1294ea6fd64736f6c63430008180033",
  "linkReferences": {},
  "deployedLinkReferences": {}
}