{
  "_format": "hh-sol-artifact-1",
  "contractName": "RewardPool",
  "sourceName": "contracts/RewardPool.sol",
  "abi": [
    {
      "inputs": [],
      "stateMutability": "payable",
      "type": "constructor"
    },
    {
      "inputs": [],
      "name": "owner",
      "outputs": [
        {
          "internalType": "address",
          "name": "",
          "type": "address"
        }
      ],
      "stateMutability": "view",
      "type": "function"
    },
    {
      "inputs": [
        {
          "internalType": "address payable",
          "name": "staker",
          "type": "address"
        },
        {
          "internalType": "uint256",
          "name": "amount",
          "type": "uint256"
        }
      ],
      "name": "sendReward",
      "outputs": [],
      "stateMutability": "nonpayable",
      "type": "function"
    },
    {
      "inputs": [
        {
          "internalType": "address",
          "name": "_stakingContract",
          "type": "address"
        }
      ],
      "name": "setStakingContract",
      "outputs": [],
      "stateMutability": "nonpayable",
      "type": "function"
    },
    {
      "inputs": [],
      "name": "stakingContract",
      "outputs": [
        {
          "internalType": "address",
          "name": "",
          "type": "address"
        }
      ],
      "stateMutability": "view",
      "type": "function"
    },
    {
      "stateMutability": "payable",
      "type": "receive"
    }
  ],
  "bytecode": "0x6080604052600080546001600160a01b03191633179055610323806100256000396000f3fe6080604052600436106100435760003560e01c806307420a411461004f5780638da5cb5b146100715780639dd373b9146100ad578063ee99205c146100cd57600080fd5b3661004a57005b600080fd5b34801561005b57600080fd5b5061006f61006a36600461029d565b6100ed565b005b34801561007d57600080fd5b50600054610091906001600160a01b031681565b6040516001600160a01b03909116815260200160405180910390f35b3480156100b957600080fd5b5061006f6100c83660046102c9565b6101f9565b3480156100d957600080fd5b50600154610091906001600160a01b031681565b6001546001600160a01b031633146101625760405162461bcd60e51b815260206004820152602d60248201527f4f6e6c79207374616b696e6720636f6e74726163742063616e20706572666f7260448201526c36903a3434b99030b1ba34b7b760991b60648201526084015b60405180910390fd5b804710156101be5760405162461bcd60e51b815260206004820152602360248201527f496e73756666696369656e742062616c616e636520696e2072657761726420706044820152621bdbdb60ea1b6064820152608401610159565b6040516001600160a01b0383169082156108fc029083906000818181858888f193505050501580156101f4573d6000803e3d6000fd5b505050565b6000546001600160a01b031633146102635760405162461bcd60e51b815260206004820152602760248201527f4f6e6c79206f776e65722063616e2073657420746865207374616b696e6720636044820152661bdb9d1c9858dd60ca1b6064820152608401610159565b600180546001600160a01b0319166001600160a01b0392909216919091179055565b6001600160a01b038116811461029a57600080fd5b50565b600080604083850312156102b057600080fd5b82356102bb81610285565b946020939093013593505050565b6000602082840312156102db57600080fd5b81356102e681610285565b939250505056fea26469706673582212202c0c71ccd27512edc5170a457d74448e5cbca8bb7409010235cae9d1a069e05364736f6c63430008180033",
  "linkReferences": {},
  "deployedLinkReferences": {}
}